:2000000000400020256F010001C9011001C9011001C9011001C9011001C9011001C90110C9
:1C00200001C9011001C9011001C9011001C9011001C9011001C901103FC9011089
:20003C002DE9F04F8046ADF5FE7DADF1600DA098D8F800408A90D8F800001F4616460D461B
:20005C001AF044FE89970146889600229295204609198C9281428B9140F20285A94A949213
:20007C008C9F90979392394686919191879195914FF0FF368396869981910F468DF81072DD
:20009C0082970778252F08BF0A1C14D0002F00F0E784D8F80010899A0078491CC8F800104D
:2000BC0088999047D8F800008C990778491C252F8C91EBD1819AD8F80030929D41465B1CDE
:2000DC00C8F8003011E042F010020AE042F0010207E042F0020204E042F0080201E042F070
:2000FC00040281920868401C0860086800782038F5D0C01EF0D00838EBD0801EE6D0C01EC7
:20011C00E1D00C46206801782A2917D0302901AA0ADB3A2908DA0146401C2060097802F8B9
:20013C00011B01783029F4DA879810709DF80470B7B101A816F0C6F9829011E0ED1C25F048
:20015C0003052D1D55F8041C002903D542F00102819249428291284621689290491C2160DE
:20017C00206801782E2926D1401C206001782A2916D0302901AA0ADB3A2908DA0146401CB5
:20019C002060097802F8011B01783029F4DA879810709DF804706FB101A816F093F909E0A0
:2001BC002168ED1C25F003052D1D491C929555F8040C21608390D8F80010819E08784C38AA
:2001DC002ED01C3814D0801E27D0801E04D0083820D0801F1BD02BE0491C0878C8F800104C
:2001FC006C2818BF46F040060CD146F4807619E0D8F80010491C0878C8F80010682803D0FE
:20021C0046F02006819613E046F400760AE046F4805607E046F4005604E046F4006601E0D6
:20023C0046F080068196D8F80010491CC8F800100978D8F800006E298DF8101200F1010039
:20025C00C8F8000000F0CE83732900F027830DF20120829C859020214FF4FF7201A812F058
:20027C000DFB859887990DEB040707F1040B01700A468D920DF5007C8E920E468F929DF88B
:20029C001032CDF814C21846642814DC642821D0253800F0EE821C3800F04981001F0228FA
:2002BC0040F24581133815D0093800F04081801E00F02E82B3E16538022840F23881001F65
:2002DC0008D0801F012805D9801F18BFB0F1030040F0A5818399002904D4819820F01000BE
:2002FC00819002E0012083900146B3F1580007D0173809D0401E03D0083818BF0A2204D130
:20031C00102202E0FFFF0F000822702B00F0B280819843F66077B246B1463840203800F0E1
:20033C008B8020387AD0C03861D0B0F5807047D0B0F5C06036D0B0F5006025D0B0F58050E5
:20035C0013D0B3F1580000F095800C3800F08980401F00F08680801F00F08C80801F00F0E1
:20037C008980C01E00F086808EE0B3F1580000F081800C3875D0401F73D0801F7AD0801F76
:20039C0078D0C01E76D07FE0B3F1580072D00C3867D0401F65D0801F6CD0801F6AD0C01E97
:2003BC0068D071E0B3F158002FD00C382DD0401F2BD0801F29D0801F27D0C01E25D063E0BE
:2003DC00B3F158000AD00C384BD0401F49D0801F04D0801F18BFB0F1030055D1ED1C25F083
:2003FC0003052D1D15F8049C4FF0000A4BE0B3F158000AD00C3808D0401F06D0801F04D0D4
:20041C00801F18BFB0F103003ED1ED1D25F007050835A5F1080090E8000634E0B3F1580003
:20043C0028D00C381DD0401F1BD0801F22D0801F20D0C01E28D11DE0B3F158000AD00C381F
:20045C000FD0401F0DD0801F04D0801F18BFB0F1030019D1ED1C25F003052D1D35F8044C01
:20047C000EE0ED1C25F003052D1D55F8044C4FEAE47A07E0ED1C25F003052D1D55F8044CDA
:20049C004FF0000AA1469295CD174C465046214350EA050708BF002903D181990D09C0F08F
:2004BC004D81642B18BF692B08D1002806DA012764424FF000018E9761EB000085A9009139
:2004DC00014620460EF03AFE8399401C814227DA9DF81032782B03D0582B18BF702B11D1BD
:2004FC00819908090FD3702B08BF7823859803708598401E85903021017085989DF8103200
:20051C00401E859081996F2B40F018810809C0F0158185984278302A00F010813021F2E0A3
:20053C00859930220A708599491E8591CCE7ED1D184625F00705A0F1610108359295083D42
:20055C0095E80006192998BF20383446984208BF012447F6F07147F6F07000EA1A40814289
:20057C0012D1939F51464FF0000E4D460A004EEA020245EA0E014FF0FF35174005EA010293
:20059C0008BF002A40F0A680371C40F0A38047F6F07181420FD1949F5146484600250A008A
:2005BC00284345EA02014FF0FF320F4002EA000008BF00283CD0371C3AD151464FF0004068
:2005DC000840070007BF002000288AF0004A0126B3F1410025D0001F19D0401E10D0401E39
:2005FC0007D01A381DD0001F11D0401E08D0401E15D15146484681AA85AB07F099FE0CE055
:20061C005146484681AA85AB15F0A1F905E05146484681AA85AB0AF08BF99DF810328199CB
:20063C008CE05146484681AA85AB04F0FFFF2AE098A20CCA5146484611F012FB25D3002C4F
:20065C0014BF4621662185988DF80012002CA0F10100859014BF4E216E2101708599002CAA
:20067C00A0F10100A1F10101859114BF4921692101708599491E85912B2700F8017C85986B
:20069C000326401E8590819956E0002C14BF4621662185988DF80012002CA0F101008590DE
:2006BC0014BF4E216E2101708599002CA0F10100A1F10101859114BF492169210170859900
:2006DC00491E85912D2700F8017C8199DDF814C204262EE0002C14BF4E216E2160468DF893
:2006FC000012401E002C859014BF4121612101708599002CA0F10100A1F10101859114BFAC
:20071C004E216E21022601708598401E859084E7ED1C25F0030534462D1D15F8047C92958D
:20073C0007B901248F9481998DF8007221F0020181916046401E85909DF810328598752BB1
:20075C0000F1010229D06F2B27D0782B25D0582B23D0702B21D01EB1761E1ED101238E93CE
:20077C0001F002038E9F8D931FB98B0808D32B2100E02D21017085988199521E401E8590CF
:20079C008D9E374309D1C80807D385982021017085988199521E401E859048080DD2859CDB
:2007BC008298ADEB040101F20121884205DB01A8241A5C44A4F5FE7400E001AC1146959A02
:2007DC0020464FF4FF7319F0C7FB8F9F859027B1879901708598401C8590834509D3ABEBA3
:2007FC0000022021401E521C12F048F887988BF80000819840092ED301A8A04232D001A851
:20081C00221A302101A812F039F88D9F8E9E374305D18198C00838BF0DF1050007D320785E
:20083C0030218DF804000DF1060004F8011B9DF81022782A03D0582A18BF702A02D181998A
:20085C00090903D2612A18BF412A0BD1617801703027677006E001A8241A2021224601A855
:20087C0012F00CF801A81AF031FA8F9F0246D21904E07EA00188012201AF39808A9B8899BA
:20089C0001A89847B0F1FF3F00F0A3808C9909188C91DBE00000000000000000839CF0098C
:2008BC0048D2DDF82092E81C20F00300001D50F8045C9290002D00F09080829F002C06D429
:2008DC0028461AF003FAA04288BF201C02D828461AF0FCF90446BC42A8BF071C8C98A742FC
:2008FC0038448C900ADD700808D23E1B002E05DD899A202049469047761EF9D1002C07DD6B
:20091C002646899A15F8010B49469047761EF8D18198A74240F39A804008C0F097803F1B98
:20093C00002F40F39380899A2020494690477F1EF9D18BE0DDF82092ED1C25F003052D1D94
:20095C0055F8047C9295002F47D0002C06D438461AF003FAA04288BF839C03D838461AF00B
:20097C00FCF90446829EB442A8BF261C8C98A64230448C900BDD8198400808D2351B002D21
:20099C0005DD899A2020494690476D1EF9D1002C0BDD2546BF1E37F8021FC8B2884214D166
:2009BC00899A494690476D1EF5D18198A6424DDD40084BD3361B002E48DD3746899A20202C
:2009DC00494690477F1EF9D140E01AF075FC582101604FF0FF308C9042E0899A959849462E
:2009FC00904733E043F660703040203825D0E0380ED0B0F5807017D0B0F5C06008D08C99F7
:200A1C00ED1C25F003052D1D55F8040C01601CE08C99ED1C25F003052D1D55F8042C084630
:200A3C00C91782E8030010E08C99ED1C25F003052D1D55F8040C017007E08C99ED1C25F0D0
:200A5C0003052D1D55F8040C018092958C98B0F1FF3F05D0D8F800008B9981423FF608ABAC
:200A7C008C987FB018B0BDE8F08FC046250070472DE9F843040014D1002019F01FFB10E0CC
:200A9C00204614F0BAFF012808D063E08A0740F1628101F0FD0101700020B071204614F023
:200ABC00F7FD04F16605687D002853D0697CDFF8C894022904F1EC0704F59E7804F5B0763D
:200ADC0004F5C67035D0042947D005295DD0062900F08D800729D3D0092900F0FA800B2958
:200AFC0000F0C5800C2900F016810D2900F0D5800E2900F0F8800F2900F03581102900F0C8
:200B1C004F81112900F06781122900F01C81142900F09281162900F06681172900F0818187
:200B3C00FC2917D0FD2900F0A081FE2900F0AD81A2E7287C012809D199F80300002813D042
:200B5C001621204619F0D0F9012004E0204614F04CF828740020BDE8F283287C012840F084
:200B7C00B08199F80200002800F0F5800021A971FF22FC21204611F001FEA07904F1B80261
:200B9C0004F1B00100F0FCF98BE7287C012811D199F8020028B1012184F894100020386027
:200BBC007860B87A01286BD1FF220621204611F0E5FD76E704F1E7063078012809D12046C9
:200BDC0017F0A3F90128C5D10020B87201212974C0E770780028BDD004F1C70204F1A001F6
:200BFC0004F1D70000F0D0F90120307059E7297C012940F06A8199F80200002840D0608CB2
:200C1C00E083204614F044FD01202870204616F0CFFA0121A971397A787C012910D1C00608
:200C3C0009D5002188F80510D8F8001098F80600490812F0FBFEA079002100F0A9F910E086
:200C5C00C00609D5D8F80020DFF8300304F5A173520821461AF0CAFAA0790122002100F0F1
:200C7C009BF9002038723873F872B87219E7287C012806D1F87A012804BFFF22FC2195D016
:200C9C0069E0204613F04AFA012821D10020F87284F894000120287403E7287C012811D137
:200CBC0099F8020048B1002184F8941001202870204616F07DFA0121A97199F803000028B7
:200CDC0010D148E0204616F095FC2874E88A288340E7287C012840F0FC8099F80200D0B383
:200CFC00608CE083DAE6287C012840F0F680387C022804F1FD0204D1A179002000F050F93C
:200D1C00CCE6032840F0F280A1791A2000F048F900203874C2E6287C012804F20D1140F02E
:200D3C00F0800878012804F5897240F0F0804878012807D15088009000201388CA78A179AA
:200D5C0000F032F9AAE6287C012840F0EF8099F802000028F6D1288B401E288380B20028C8
:200D7C00B6D12221EDE6287C012840F0E38098F80900012802D131780F291BE098F8080051
:200D9C00012826D1002188F80810288D000900901A20AA8CEB8CA179520800F009F97DE660
:200DBC00287C012840F0CA8098F80900012810D1317810291CBF002019F080F9002088F82E
:200DDC000900298D09090091AA8CEB8CA1797078E2E7287F73E7287C01283FF461AF2046A6
:200DFC0013F014FE71E7297C012940F0AB80017B4A061DD4CB0709D501F0FE01017301234B
:200E1C00A179707801220EF027F847E68A0740F19E8001F0FD0101730123A17901221A2069
:200E3C00F1E7297C012940F09F80017B4A0692D501F0BF01017331E6297C012940F096801C
:200E5C0001788A067FF522AE01F0DF010A0701700AD501F0F7010170F08B0090738BB28B57
:200E7C00318BA07900F0A8F816E6A97EFF22204611F084FC0EE7FF22204611F07FFC0120AD
:200E9C0067E6002019F01AF964E6A97E0C2918BF0E29F0D00F2902D01429ECD0F1E7FF223D
:200EBC00FC21204611F06AFCB8F812000090B8F81030B8F80E20B8F80C10A07900F080F8BF
:200EDC0048E6204610F0B1F8FFE6204615F09CF9FBE6204612F03EFDF7E6204612F004FD0A
:200EFC0028740121E88A2883397433E6288B401E288380B20028F8D1A179222000F050F8C2
:200F1C002FE701208870204611F0BAFFDDE6288B401E288380B20028E7D15088009022202B
:200F3C001388CA78A17900F03FF81AE7204615F0E2F9CAE620460EF0AFFFC6E620460EF05E
:200F5C00FDFFC2E6162120460EF0B8FCBDE6288B401E288380B20028C7D1A17901230122D0
:200F7C0022200DF079FFFCE61721ECE71421204610F0FCFEA9E600BF5C4D0020292E0100AD
:200F9C00DFF800F021C90010DFF800F09D720110DFF800F069CA0010DFF800F001CA0010E1
:200FBC00DFF800F025C80010DFF800F0ADC80010DFF800F049C70010DFF800F065BF001023
:200FDC00DFF800F0E5BE001008B509F021FF044807F018FE10B916F0D3FF08BDFEE7C046FB
:040FFC0024C7010005
:20100000B412000018100000BD580100FDB301106DC00110FDAE011099B5011059BA01108E
:0810200039BA01102D00000097
:20102800B01200003C100000B1C00110A9BF011067C0011069B80110B9B9011099B901104F
:041048003000000074
:20104C00B012000060100000BDC00110CDB30110D9BD01106DB301108DB80110D9B9011062
:04106C00310000004F
:20107000000000009C0F002004000000000000000000000020000000E8C90110300000007F
:2010900028100000A40F00200400000000000000000000000C000000D8CA0110180000005A
:2010B0004C100000AC0F002004000000000000000000000024000000F0CA011018000000DE
:2010D00000000000B40F00200400000000000000000000001000000018CA01102C000000EA
:2010F00000100000C40F0020040000000000000000000000200000006CCA0110240000004E
:20111000FFFFFFFFCC0F00200400000000000000000000002800000090CA0110240000000D
:20113000FFFFFFFFD40F00200400000000000000000000001400000008CB0110180000008C
:20115000FFFFFFFFDC0F002004000000000000000000000058000000B4C90110340000005A
:20117000FFFFFFFFE40F00200400000000000000000000001000000020CB01101800000028
:20119000FFFFFFFFEC0F00200400000000000000000000001C000000B4CA01102400000055
:2011B000FFFFFFFFF40F00200400000000000000000000003800000044CA0110280000007D
:2011D000FFFFFFFFFC0F00200400000000000000000000005400000078C901103C000000F2
:0811F00002000000CCCB01005D
:0411F80001000000F2
:0411FC0000000E00E1
:0412000000000F00DB
:0412040032000000B4
:0412080001000000E1
:04120C001C0D002095
:0412100000020000D8
:0412140000000000D6
:0412180001C90110F7
:04121C0000000000CE
:0412200000000000CA
:0412240008000000BE
:0412280000002200A0
:04122C00AC0A0020E8
:0412300000000000BA
:0412340000000000B6
:0412380008000000AA
:04123C00100C002072
:0412400000000000AA
:0412440000000000A6
:04124800080000009A
:04124C00000000009E
:04125000000000009A
:041254000000000096
:041258000000000092
:04125C00010000008D
:04126000440B00201B
:041264000600000080
:041268000100000081
:04126C005C090020F9
:04127000000000007A
:041274000000000076
:041278000002000070
:04127C00000000006E
:02128000290043
:02128200010069
:02128400250043
:02128600300036
:02128800310033
:02128A002D0035
:02128C0001005F
:01128E00015E
:081290000300000080CB010007
:0812980000000000000000004E
:0412A0000000010049
:0412A4000000030043
:0412A80013C401105A
:0412AC00A3AB0100EF
:0412B000B812000070
:0412B400B81200006C
:0412B8000000000032
:0412BC002C0F0020D3
:0412C00089AD0100F3
:0412C4002000000006
:0412C800B4C90100A4
:0412CC00D4C7010082
:0412D00029C101101F
:0412D4002B220100C8
:0412D8000B290100DD
:0412DC00A1C7011095
:0412E000A3C701108F
:0412E4000000000006
:0412E8005DCC0100D8
:0412EC006CC60100CB
:0412F00084C60100AF
:0412F40054C60100DB
:0212F8000200F2
:0212FA000900E9
:0212FC000100EF
:0212FE000000EE
:0113000001EB
:04130400FDAC01003B
:04130800BD8501009E
:04130C00E99D010056
:04131000098A010045
:04131400F58501005A
:04131800856D0100DE
:04131C007D16010039
:041320008BB001008D
:0413240081520100F1
:0413280015C70110D4
:04132C0025C70110C0
:201330002DE9F04F85B0804611F8010BDFF81028009008F1FD00009B182B08F1E70508F1E7
:20135000660A08F20D1B08F5B07408F1860908F59C7608F5C67700F2E183DFE813F01900C0
:201370006A0080018800DF03DF03F100BA0303011801F40000014701DF03DF039F01DF03D8
:2013900082016A01C6030B030B035E02DF03A90211F8015B89F80050022208F188001AF098
:2013B00059FB0146022208F18A001AF053FB0146022208F18C001AF04DFB0146022208F1DD
:2013D0008E001AF047FB99F80010B9F80220490089F800105200B9F80410A9F802204900B2
:2013F000A9F804100222B9F808100901A9F80810014608F184001AF02DFBBAF81E10B8F8F2
:201410000800091A89B247F6FF72914225DAB9F80600B9F80410B9F80820401C4900484351
:20143000904228BF3B2080F06F8201208AF81C0018E0052208F161001AF00CFB0146022273
:2014500008F192001AF006FBB9F80C10B8F80800091A89B247F6FF72914280F25482012019
:2014700089F80A000021A8F81E10307065E3AA7DD00709D4687B1A210128A97302D1FF22C8
:201490000D213BE00D210DE200208AF8000001226A7408F1B00008221AF0DCFA0146022215
:2014B00008F1B8001AF0D6FA08F1A8040146082220461AF0CFFA0646082120461AF0C6FA9D
:2014D00008F19C040422314620461AF0C3FA042120461AF0BBFA08F1A0001AF0B3FA08F106
:2014F00098001AF0ABFADFF85C06018841F080010180687B012807D1FF220421404605B03B
:20151000BDE8F04F11F040B99AF811500F2D18BF142D03D00E2D18BF0C2D0FD19AF81040B6
:20153000404614F0BBF80421404612F077F9012C12BF29468AF81A50FD21B3E10421B1E17F
:201550000120E873F9E2002100208AF800108AF8060001216973287068700B21A2E101208B
:201570002874EAE2541C00230932CD5CD65C3543CD54E65C3540C5545B1C082BF5DB9AF855
:20159000060000284BD0404612F0EAF9CBE2002302F10906CF5C16F803C04CEA0707CF5452
:2015B00002F1010E1EF8039007EA0907C7545B1C082BEFDB02206875E97D080703D440F65F
:2015D0004800A081E08150788106CAD520891B2804BF60891B2807D1A089B0F5A47F04BFDC
:2015F000E089B0F5A47FBCD014215BE19BF80000012811D011F8012B8BF8032008F589703F
:2016100002221AF027FA0146022208F58A701AF021FA01218BF800109AF80600002800F07F
:20163000AF819BF8020000282AD1404611F02EFC79E2A87DDFF81045C10609D412208BF8FC
:201650000C00404614F0DFF9002819D120786DE2404614F07DFE002812D1207866E20878A3
:2016700052E108782070497861709AF8100001280ED19AF811000F38012802D9C01F03D03B
:201690005BE20122727358E2387B40F0010043E205B0BDE8F04F002018F016BDA87DDFF822
:2016B000A844820709D40F208BF80C00404614F0AAF90028E7D1207838E208784A7800EB1E
:2016D00002203082CA78887800EB022070824A79087900EB0220B082CA79887900EB022011
:2016F000F082087A30764A7A887A02EB00227283C87A0A7B00EB0220B0838A7B487B00EBBC
:201710000220F0830A7CC87B00EB022030848A7C487C00EB022070840A7DC87C00EB0220F7
:20173000B084487D897D00EB0120F084DFF81C0401788A0658BF1A2213D508F5AA70049034
:20175000718B0391307E0290B8F808100191F08A0090B38A728A318A404611F053F8A0B12E
:201770001E22A87D410709D40F208BF80C00404614F049F900284DD12078D7E1404605B074
:20179000BDE8F04F0F2116F0C1BD708AA9F804000022B18AA9F806100221F08AA9F80800A8
:2017B00089F80010A9F80220B8F83400C01DAAF81E00B8F83210B9F80400B0EB510F02BFE1
:2017D000B9F80600B8F83410884202BFB9F80800B8F83610B0EB111F1DD09AF81000012891
:2017F00004BF9AF811000F2807D09AF8150020B10F218AF81A10FE2154E0FC21404612F019
:201810000DF8F08A0090B38A728A318A98F80600FFF7DCFB91E1102144E0E87D10F0090F0E
:2018300003D116208BF80C007AE14A78087802F00702104008707A7B0240FA7211D0501EAD
:2018500002420CD0520704D5B87B10B10421F97205E0F97A0220014219D14008FBD1F87A75
:2018700008B9B87AF872F87A042803D1404613F019FCA083F87A1AF0DDF83871A28BB97B6D
:20189000012315F07BF9218B814202D208E0F872E5E7A28BB97B3879012315F06FF9014650
:2018B00079801721404605B0BDE8F04F11F0B6BF48780A78824207D100F0070010400870B5
:2018D00033D0431E18420FD01E221821404616F01DFD98F80610012301221E200DF0C2FA58
:2018F000387B40F0400017E1F87247F6FF728878C97800EB012038813989B8F80800091A02
:2019100089B2914206DB282001218BF80B008BF80A1012E10120B871F97A042903D14046FC
:2019300013F0C0FBA083F87A0BE09AF81100162806D1BB7A98F806101A4600200DF092FABD
:20195000B87A3871A28BB97B3879012315F016F9218B814206D3A28BB97B3879012315F0CF
:201970000DF9014679800121387B40F0400038733170E2E0142B04BF9AF80600002806D125
:201990003D2101208BF80B108BF80A00D5E00A78487802EB002262828878CA7800EB022054
:2019B000E0824A79087900EB022020828879C97900EB0120A08208F5B07108F5B0708A8A02
:2019D000C089B97A904288BF1046042905D140F691229042B8BF4FF42960E28BE083904269
:2019F000B87A14BF01250025042805D1404613F059FBA28B90420AE008F5B07008F5B07184
:201A10008089CA8AA18B904288BF1046884214BF01210021A0830D4308F5B07008F5B07130
:201A300000894A8A218B904288BF1046884214BF012100210D432083A28BB97BB87A012394
:201A500015F09CF8218B814206D3A28BB97BB87A012315F093F80146798008F5B07008F5F4
:201A7000B0724189108A628B814288BF01466183914298F8063014BF0120002005438A42ED
:201A900033490A6802EB4311628B8041121DC00F0A7610B1404616F0F9FE009814280ED1E4
:201AB00045B1E08B0090638BA28B218B98F80600FFF788FA1521404610F05EF933E01DB15C
:201AD000387840F008003870397841F02001397033E008780E280ED00F2809D0122804D0F5
:201AF00014280BD0162811D027E00021317224E00120307321E0032169751EE0387840F02C
:201B10000200387040F01000387016E0387B40F00200387340F0100038730EE08BF80C3005
:201B3000404613F070FF40B9074800784FF4804105B0BDE8F04F0BF0E5BE05B0BDE8F08FC9
:201B500070280020524F00206E4F0020144E0020482900202DE9F84F012016F0E5FE01287C
:201B700019D1DFF8A046207800210CF08DFA5FEA000804BF002018F0A7FA002088F80800ED
:201B900008F1040012F078FF06F0ECFA050003D1812019F04BFF2EE301206871DFF86826A6
:201BB000DFF868064178491C4170A87988F80A0040202178117005F597740EF069FA2860EE
:201BD000D8F854104A78D8F85000D1061AD5806D01680A79032A1CBF002018F075FAD8F8D1
:201BF0005000816D90F87C000A6802F1080601281CBF002018F068FAD8F85000D0F8841016
:201C1000286846E0C06E01680A79032A1CBF002018F05AFAD8F85000C16E90F898000A687F
:201C300002F1080601281CBF002018F04DFAD8F85000DFF8DC25D0F8A0102868DFF8D495E0
:201C5000C16096F826701388032F22D8DFE807F00205101801F5B06101E001F53471C160D7
:201C7000B9F80000E087B9F80010A5F8741113E0E3871188A5F87411C26802F5355206E0B3
:201C9000E3871188A5F87411C26802F6B872C26002E001F5B061C1603078DFF87C95DFF830
:201CB0007CB5C0F3801020700622B11C05F5947018F07CFE042206F10E0105F1240018F04D
:201CD00075FED9F80000AF7900F10C03042206F10E0103EB471018F069FED9F80000AB79B3
:201CF00000EB4317032206F1120107F1100018F05DFE05F12C07707DB870022206F1160185
:201D100005F1300018F052FE022206F1180105F1320018F04BFE022206F11A0105F1340028
:201D300018F044FE38896884022206F11C0105F1360018F03BFEB87879894000B870090153
:201D5000B88879814000B88089B2F8884000F88003046A8C521CDB0B5A438A4201D280B28F
:201D700050B99BF8000080210BF0CCFD2846BDE8F44F3B2118F0BEB805F12E01284618F087
:201D9000D3F90520A881284618F0DEFB052206F11E0105F1610018F009FE96F8230040092D
:201DB000387017F065FF6882B8F82A10401AA08105F1610196F82300DFF8644400F01F001A
:201DD000F873284615F01BFAD8F854104A78D8F85000D10647BF0022806D0022C06E1C266C
:201DF00001680A7141F62102A9792068714342520021AB7973430344001D5980AA79724393
:201E10008150D8F85420DFF81C045178CA060DD5DFF814148A7851060AD5DFF8102413884E
:201E300041F20A418B4208BFDFF80404C5F89C01D5F89C11284688472268A97902F10E03E0
:201E5000714358540021AA792068DFF8E83372430244D173187878B1B88868B979730120EE
:201E7000288168812846D5F89C2190472168AA7901F10E0372439854A8792168704301F152
:201E90000E02135C7B73D8F854104A78D1061AD595F8960108B918F017F9A97920687143AE
:201EB000014495F89601421E0A74A879216870430844002141742268A97902F112007143E7
:201ED000002242522AE0D8F85010236891F8402018440274A879216870430844D8F85010E3
:201EF00091F841204274D8F850002168AB79403001F1120273434188D15205F5CB7100789F
:201F1000012200F0030082400A70D8F8502092F84000800814BF012002200871A979D9F84B
:201F300000002268DFF810A300EB411302F1140C71434CF80130A97971431144BF4A8A61E3
:201F5000DAF81410097895F806E0CA074CBF102200228B074CBF202300235FEA417C4CBF43
:201F70004FF0400C4FF0000C09074CBF8021002113434CEA030308304FEA4E1E0B4343F0AE
:201F90000F0300F80E30D9F80010A87901EB40120B215172D9F80000AA7900EB4211042064
:201FB0008872D9F80020A97902EB4110A44A1378012B02D10121C17203E0DAF828104A784A
:201FD000C272D9F80000A97900EB41121F201076D9F80010AA7901EB421000214176A8798C
:201FF0000DF06CFAA979D9F8002049015050A9794B01D05820B90721284617F07BFFFAE011
:202010009048026802EB011019F00CFD8D4AA8791368D9F8001003EB00120B1D40011A5037
:20203000081DAA7952018058F863AA7952018858786404219BF800000BF064FCD8F8540059
:2020500042782168D00648BF4FF0020B0BD4A87970430844027C02F00302022A14BF4FF052
:20207000040B4FF0060B734BBA881878934410B10AB9F888834498F80D2090070AD5052166
:20209000284617F037FF98F80D0000F0FD0088F80D00B4E0688A00FB0BF04FF4C872B0FBCA
:2020B000F2F2521CC5F818B06A6140F6C41CA8792B687043009001F1080ED8680CFB0B0BFC
:2020D0000098ABEB0202A2F5A8624EF8002001F10802A87906FB00FB52F80B00986001F15F
:2020F0000C02A87970430C31135C03F0EF030B54A8792168704301F10C020C31135C03F002
:202110007F030B54A8792168704301F10C020C31135C03F0F00343F002030B54A87921689E
:20213000704301F10D020D31135C03F0F00343F001030B542068A97900F1080271435058B1
:202150002A6810616B69D9F80000AA7997F802E05B0000F1140152010CFB0E3303F5F663E6
:202170008B5095F89611042907D1A979490100F11402535803F561635350A97900EB411060
:20219000C27C02F0F00242F00402C274FB88D9F80010A879DAF8307001EB40123868434344
:2021B0006427B3FBF7F30CFB03F0A0F59660D061A87901EB4010C17E01F0F00141F0040182
:2021D000C176A97920682A684E438119516028460E2111F023FB1C4907200870404618F052
:2021F00087FCAA790021404613F000FA28681749174A41618261BDE8F14F03F0B7BEBDE8BD
:20221000F18F00BFDA290020DB290020684E00209C290020C6280020482900206E4F0020F1
:2022300044290020B15E010070280020504F002037530100784E002060CC01005C4D002013
:20225000734F00208C4E00206F4F002051760100020480802DE9F84FDFF84044A178FF29ED
:2022700004BF002017F030FFA07818F00DFD044604F1680604F5C9753168086804F1900792
:2022900010B10021E18310E0B07B002804BFB07E00280AD13978002904BF2878002804D177
:2022B000207F012804BF608CE0832189E08B4118491C6181204617F044FE01281EBFDFF8F3
:2022D000E0030178012904D121890020491CE08361814FF6FF78B07E01280DD1B28B618907
:2022F000208919F09BFB38B1218960894A1C93B298422CD0B08B20E0387801280DD17A8895
:202310006189208919F08AFB38B1218960894A1C93B298421BD078880FE02878012816D101
:202330006A886189208919F079FB80B1218960894A1C93B298420AD0688892B2904206D08C
:202350004044608180B219F065FB4044E083287801280DD121896888491C89B2884207D103
:202370006A792A71002028701346A1790CF07AFD04F59A71087920B120890021401CE18351
:20239000608104F12E07B07E01283ED12289B08B521C92B2904238D1608104F18601204686
:2023B00017F0C2FEB08C608400212177E183E08961894118A181B08B218919F02BFB804661
:2023D000B988308C728C01FB0808F08C8A4204BF3989884202BFB38CF9888B4207D0000921
:2023F0000090B38CA17952080020FEF7E7FDB07F3870718CB980B08CF8802046F18C398133
:2024100018F0A2F80220B07601E0B7F80480E28BDFF890C2DFF89092501C00FB08F040F68A
:20243000C41808FB00F100912368D3F80CE07144D960DCF800E09D499EF800A00B884FEA5F
:202450009A1ABAF1030F15D199F80FC05FEACC7E48BF00230ED45B1C1FFA83FCBCF1010F4A
:2024700011BFB4F812C004F59A7EBEF806C00CF2DC5C01E0B4F812C00CFB00FC4FF4C87E50
:20249000BCFBFEFCDFF828A20CF1010CC4F814C00B8084F820204FF01C0BA379A0610BFB70
:2024B00003F3DAF80010226801F1080001F1080EC0581061A379D2F80CC060690BFB03F3A8
:2024D000ACEB00004EF8030001F10803A0790BFB00FC53F80C00906001F10C02A0790BFB8E
:2024F00000F00C31135C03F0F00343F002030B54DAF80000A179821C0BFB01F10023535269
:20251000287908B917F0E0FDDAF80000A27900F1100128790BFB02F240088854A079DAF8CC
:2025300000100BFB00F00844002141742879042814D1A079DAF800100BFB00F001F11002BC
:202550001031135C2A7A43EA82030B54A279DAF800000BFB02F2024420205074DAF8000003
:20257000A27900F112010BFB02F200238B525149A2790968520101F11403D4F814E053F8A5
:2025900002C00CEB4E0C43F802C0B27E022A08D1A27952019E583B7808FB036601F114035A
:2025B0009E5099F80F20D30749D5A2790BFB02F200F1080308309E58A6F5A8669E5001F19D
:2025D0001406A27923680BFB02F282589A600098121A1A6101F11402A0794001135803F559
:2025F000F66333502879042807D1A079400101F11405135803F561632B5001F11400A27922
:2026100052018058C4F834012B4ABE88176B3868A57946436420B6FBF0F601F11C036D0170
:2026300008FB06F0A0F596605851A07901EB401022490B78012B1CD10121C1721CE028790F
:20265000A37904280CBF4FF4AA504FF4E66001F114025B01D258BB8808FB03F3101AA3F505
:2026700016739842D0D30821204617F043FC012011E0916A4A78C272A179DAF800000BFB7A
:2026900001F281182268516007200D490870204615F034F90020BDE8F28F00BF684E0020FB
:2026B000784F0020084F00205C4D00209E290020442900204829002060CC0100734F0020CF
:2026D0006F4F00202DE9F04F0446A24DDFF88C92A0782A780FF28828ADF13C0D002800F01F
:2026F000A980DFF874A2401F4BD0401E09D0401E00F02981083800F02181801E00F01A8110
:2027100024E10020009007460646019740F24E410122029796A30397404604960CF0D2FF86
:20273000514610200FF0BAFD009040F24F4101970122029794A30397404604970CF0C2FFB7
:20275000A08815F0EBF900972A784946102033460FF0A4FD002840F0F980514610200FF0B0
:202770009DFD40F25C418CA3C0F10102009201973A46029203924046049201220CF0A2FF4E
:20279000E4E0102051460FF089FD617800270091012201908DA3029740F22C41039740464C
:2027B00004970CF08FFF6078D8B9608914F028FEDFF81CB30126241D062113230096204601
:2027D0005A460EF09BFFCDF800B03846019740F2394102908AA303903246049040460CF09A
:2027F00071FF102051460FF059FDD0B9102051460FF054FD3C46C0F10100009040F23E4128
:2028100001970122029488A30394404604940CF059FF3B4600932A78494610200FF03EFD74
:2028300094E0102051460FF039FD40F244418CA302469BE76078002840F08880267AE77930
:20285000A27A8DF83260A0798DF83170E37A8DF8362000268DF8300008218DF83730677AED
:202870008DF83460B2468DF835700CAA8DF833A050460AF099F80127A01D06211323954CBB
:20289000009722460EF03AFF00944046CDF804A040F2E731CDF808A082A3CDF80CA03A46A2
:2028B000CDF810A00CF00EFF8B495CC905A85CC00EC980E80E00102005AB8849884A009563
:2028D0000FF0ECFCC0B208B118F042F91D2016F016F9062619240221017009234770814A96
:2028F0008670411DC4701827037112F8013B7F1E01F8013BF9D11D21009101907A492A78E6
:20291000534610200FF0CAFCC0B208B118F020F976492A78102092230FF0C0FC53460093A0
:202930002A78494610200FF0B9FCC0B270B118F00FF90BE0204614F0CBFA07E06C491020E9
:202950000FF0ACFC02E0204608F0FEFA0FB0BDE8F08FC046C4280020117501000DF200000D
:2029700070726F6A6563745F7A65726F2E6300C044657669636520446973636F6E6E6563DA
:202990007465642100C046C04E756D20436F6E6E733A20256400C0465265737461727420C4
:2029B0004164766572746973696E672C20256420706F737369626C6520636F6E6E65637427
:2029D000696F6E2072656D61696E00C04C696E6B2065737461626C697368206576656E7496
:2029F0002C20737461747573203078253032782E204E756D20436F6E6E733A20256400C0CE
:202A1000436F6E6E65637465642E205065657220616464726573733A201B5B33326D2573F9
:202A30001B5B306D00C046C0436F6E74696E756520746F204164766572746973652C20252D
:202A50006420706F737369626C6520636F6E6E656374696F6E2072656D61696E00C046C0CF
:202A70004D6178204E756D626572206F6620436F6E6E656374696F6E2072656163683A20F5
:202A900025642C204164762E2077696C6C206E6F7420626520656E61626C6520616761699F
:202AB0006E00C04647415020697320737461727465642E204F757220616464726573733AE3
:202AD000201B5B33326D25731B5B306D00C046C04828002034280020A8C8010011960000E9
:202AF000119A0100EC0C0020C5BF000011660100957C01002DE9F04F0546C24CA97860695C
:202B10000027ADF11C0D0A290FDC0A2900F0B580002900F0CB81491F00F0BD81491E00F0EF
:202B30008C81C81E00F07081EBE10B3900F08F80C91E00F08280491E0DD0481E40F0E1818D
:202B5000227817F0C9FC002800F07581104604210AF0D8FE6FE12E4628B143681BB1A88862
:202B700039460A4698476078002863D0B08814F0E7FC051C00F0C581B07A400811D36B79B4
:202B90007BB1012B0DD0F068800A0AD203F001033A460097A81D194613460BF0EBFF00289A
:202BB00043D1207A022802D1B07A00093DD3B6F804806D790C2018F0CDF906F10809061CDB
:202BD00000F03981A6F80880B5723B463360B9F1000FF77209D04846082117F00DFD706047
:202BF00020B9304618F0C6F925E17360A069002808BFA66102D00368ABB90660304618F052
:202C100091FB4A462946404607F036FF6069002800F011814368002B00F00D81394640469B
:202C30000A46984707E11846E5E7B088032118F0EDFE66E1B08805211CE0002800F0FB80C0
:202C50004368002B00F0F7806A780221D7E018F025F9002800F0EF80606948B104683CB1A3
:202C70002869009069892A7B6B7BE81CA047E2E06889012118F0CAFEDDE0B8466F78002F45
:202C900040F0AD80A9794908C0F0A98002A84146082218F0BBFBA88814F052FC071C09D1E3
:202CB000227817F019FC00287AD0104604210AF029FE75E06869002854D0064641460622D3
:202CD000113017F01EFDC24630B330464146062217F017FDE0B9307C06F11109D34646465B
:202CF00000F001000590761CF6B289F80060CDF800B005994846524653460BF03BFF10B953
:202D1000002EF0D104E01EB1BAF1010F02D006E04FF0010A46466E61BAF1010F22D068696B
:202D300050B30646307C062206F1110100F001008DF80E0002A817F039FE787906F11108EA
:202D5000012805D107F10C00B91D062217F02EFEB81D4146062217F029FE307C40F002009F
:202D7000787109E07879B91D062200F001008DF80E0002A817F01AFEA879C00839BF3879A3
:202D900000F0FD00387940F002003871A879000939BF387900F0DF00387940F0200038715E
:202DB000A9799DF80F20C1F3800010438DF80F00080905D39DF80F0040F008008DF80F00A9
:202DD00002A8294605F0E2F85FEA000803D1A88813F044FE02E0A88814F036FF606950B34A
:202DF000436843B3A8886A7801219847687810BBA87940081FD36069032142464368A888B9
:202E10000FE7C046500600203B460093E978281D0DF1110201F001010BF0ACFE58B99DF827
:202E30001110480005F10C0200EB810025300421C0B217F0C4FA012763E0A88814F004FF56
:202E500018F0E0FD00285CD1E07A012814D0207B01280DD02D4C3D4614F8010F012803D10B
:202E7000284609F0F9FF27706D1C062DF4DB0CE010F018FE277308E017F02FFE394604F195
:202E900020000622E17218F0C1FA502017F060FC13F090FB35E0687898BBE8786A892B7B22
:202EB000291D00F001000AF005FB2AE0687840BB18F0A4FD054618F09DFD044618F096FD71
:202ED0008DF8100010212A46022017F078FA03201021224617F073FA0420012104AA17F0E6
:202EF0006EFA9DF81000012803D09DF81000032807D1012015F0E8FE02460620014617F049
:202F10005EFA384607B0BDE8F08FC0466F0600202DE9F84F040004BF002017F0D5F804F148
:202F3000500941F62300D9F8006030800021718018F058FD00F57A60B06002218220307337
:202F50007173B068217E2061B1730020F073D9F80410087D022804BF002017F0B5F8D9F8A2
:202F70000400007D012802D10020002104E083280CBF0620022020213074717404F1240BF3
:202F9000D9F80400DFF878834178480615D5D8F83410486902689BF80500511C00EB40002A
:202FB000095A7182607DC10604D5E07F40F04000E07702E040F04000607506F1580500206D
:202FD000287104F130009BF81A10890001F00401297128614FF01E0A607DC10644D506F1A9
:202FF00030003062D9F8040041788A060BD5617D01F0FE016175407810F0030F03D1E07F60
:2030100000F0FE00E077607D15F060FD0246A275521C307CC0F38001002392B200F0030015
:2030300014F0A8FEA0831E23A08BE27D00F5FA7100F5FA7090FBF3F34A430AFB130062832E
:20305000C0B208B1C0F11E008018A183608380B2B168C03001EB8001A9600220E871E17F3B
:2030700041F00801E17714E000203062607D40F001006075D9F804104A78510744BF40F0F3
:2030900002006075607D15F021FDA0750020A860E871A07D217D60F3050106F1880021758A
:2030B00001700321627D8170427006F128079BF81A10890001F0040141F0030181709BF8CE
:2030D0001B20D20002F00802114381700021C1708160BBF81C00C0F30B00ABF81C00D9F842
:2030F0000410CA7D40EA0230ABF81C000022617D01F0FE0120460BF063F940F61200B08322
:203110000021F183A020706207213970607DC1064CBF00200220787041F62401E07D78801D
:20313000398100207881B168608B01EB800139610220822139757875002094F8211001F073
:203150003F01B975F875D9F80410887D012818BF022804D100F07F00401E002104E083281E
:203170000CBF06200220202179763876D8F8340041690A689BF80510501C01EB4101405A52
:20319000788300216961D9F80400417811F0030F1BD016F0AFF86861D8F818000078C1070F
:2031B0004CBF1021002182074CBF2022002243074CBF4023002300074CBF802000201143A9
:2031D0001943014341F00F01297600206876D9F80410887C00F0030068769BF81A10890061
:2031F00001F00401084368769BF81B10C90001F0080141F01001084368764249087838B1C0
:20321000687E40F040006876287E00F0FE002876E07F15F05BFC84F8200020460BF028FB5D
:20323000E07FC1063AD5D9F8040094F820204178521C88074EBFD21E9BF81F008218387EF3
:20325000C0F380010023D2B200F0030014F092FDABF80000BBF8000000F59671C1F11E02D9
:2032700091FBFAF10AFB012A8BF804A0D9F8042051788A074CBF00214FF4FA710818ABF884
:203290000000ABF80200BBF800209BF8040039698218C03201EB8201022001E0002100202E
:2032B000E961E87604F13000A862D9F804104A78687E510747BF04F1380140F02000124963
:2032D00000F0DF00E9626876022294F82000A17F60F30501A17740F60B00B8840021F9846A
:2032F000F96229706A7094F845006880D9F804104878810744BF012068800020BDE8F28FB8
:2033100060CC0100784E0020D04700202DE9F84F0E46700688B026D5DFF84823107800210E
:203330000AF0B2FE04001ED0DFF83C0301688847054617F007FE6168884204BF40F2014073
:2033500018F04CFB00202072201D11F095FBC7490A6828469047204617F0CAFBFF22432110
:20337000204612F043F9F0070BD517F0EBFD28B100218160BE48006800B1804786F001009B
:203390006CE1B0070FD500210023069105910491039302910191009101223C2018F01AFB47
:2033B00086F002005AE11E277007DFF8C88240F19F80B1480078002107918B460AF064FEC6
:2033D0000446AE488178FF2904BF002016F07CFEA07A17F059FC0546606D807A95F82E9145
:2033F000022818BF032805F5947A06D108F10D0018F0ECFA08B908F1070B5146484618F0C5
:20341000E1FA88B3606D807C002818BF012804D14146504615F0E2FD04E05246494640462E
:2034300010F050FFFF283ED007FB00F908EB090706225146F81D17F0B9FA18F8090040F023
:203450000209F81D07900622616DC87A00F0010085F82E0107F1010A606D00F10C0105F508
:20347000947017F0A3FA1EE05146484617F05AFBC8B152464946404610F024FFFF2812D0C3
:20349000474308EB070404F10D0018F09FFA40B904F10D0018F09AFA002804BF607F012867
:2034B00001D149F0020905F12C004B46017806914289120905920122698C0491C088079911
:2034D000029140080390CDF804B0CDF800A00020A97918F07FFAD5F89C0169498842A879C6
:2034F0000CBF002101210EF039FB86F00400B5E030060FD5002100230691059104910393B7
:2035100002910191009101223B2018F063FA86F08000A3E0F0045BD55A490C6808F10D0048
:2035300018F054FA002842D108F1070108F10D0018F044FA3BE0606D4178480704F13E0575
:2035500023D5287802281EBF0328687801282DD1697804F13802404610F0B4FEFF2814D037
:20357000784308EB000909F10D0018F02FFA60B909F1070109F10D0018F020FA062209F1E6
:20359000070104F1380017F011FA2878022818BF03280BD108F10D0018F018FA30B90622FB
:2035B00008F1070104F1300017F000FA2468002CC1D135484268354800784FF4805113F057
:2035D00091FB10B18E200FF0A1F886F4805045E0B00505D517F06AFD2D4901200860FEE7F8
:2035F000700504D507F081FB86F4806036E0700405D581200FF08AF886F480402EE0B1041D
:203610002BD5244C206810B1002016F05DFD4FF0FF3020600020204C10F036F9216851F8E6
:20363000202F684690471D49086B4A6B24681C4B0090019202936B46C86A1A4A0392ADF8EC
:2036500010002568184A19491948A8471949086005F0B6FB86F4005000E0002009B0BDE811
:20367000F08F00BFDA290020500C0020540C0020204F0020C8230020DB290020684E002049
:203690003753010060290020784E00206E4F0020FC002043044F0020F04E0020700A002059
:2036B00035AF010045AF01009C270020B80E002088490020EC4E00202DE9FC47B44CB54DB1
:2036D0002678DFF8D482B54FB549002E4FF4A05900F01F81072E14D0092E18BF0A2E00F0C4
:2036F0001A810B2E18BF0C2E00F029810D2E00F0EC80112E5CD1AB4A107800210AF0C4FCE0
:20371000002878D0C5F80080426D5378016DA64CDFF89882DB065ED50B4641F2044EB3F88C
:2037300002C0F4451FBF5E8B7645B3F832A0F24506D041F20A4EF4451CBF7645F24502D10E
:20375000A7F800E04FE0002440F2FE364FF0180C0CFB04FC03F1020E3EF80CE0A7F800E012
:20377000BEF1010FF2D0BEF1000F12D0AEF1020EBEF1010F0DD9BEEB060E1AD04FF48066F4
:20379000BEEB060412D04FF44066A41B01D0A41E012C40F2DE80241FFBD040F2FA36A41B5D
:2037B00000F0F180641E00F0E680E11E00F0D980A7E0B3F800C040F6010EF44540F0C9808F
:2037D000641C022CC2DD57E0981C20F80C900FE001680A710CE0488E388041F20441401ACE
:2037F00001D0801F01D12C6046E041F206403880C5F8008040E06E498978FF2911D0C5F8B9
:20381000008008461C226B4B50431A68941C235A3B8013F47F4FF4D040F204441B1B012B64
:20383000654976D94FF47F741B1B15D00A3B012B17D940F6F6341B1B032B84BF5B1F012B1C
:2038500012D99B1E012B64D940F2FD341B1B0BD05B1E012B05D909E0921C41F201431352E1
:2038700002E0941C24F80090296005E0002016F02BFC852018F0DAF8BDE8FC474F480078C9
:2038900001210AF03FB84E4C4E4A25684E4800680023CDE9002355F8089F4C4B0222C8478E
:2038B0004B49088035E0092E4ED14A490A685089002849D04849087811F01CFF00210020E4
:2038D00018F078F80020207023E04888388002280DD940F20442801A1BD040F6FC72801ADA
:2038F00005D0083815D04FF47F72801A2CD1887B801CC2B2B52AA8BF662088730020488031
:2039100007E0002016F0E0FB8420BDE8F64718F08DB8BDE8F3874888388010F47F4FFAD099
:2039300040F20442801AF4D040F6FC72801ABAD00838EED04FF47F72801AA4D004E04888E5
:20395000388010F47F4FFAD0002016F0BDFB8520DBE7807B012818BF042801D0A7F8009097
:2039700046E7807B01287FF42FAF981C41F2024120F80C103CE75278D00647BF0022886D57
:203990000022C86E24E7002016F09EFB8320BCE76F4F0020204F00204DB30100504F002082
:2039B00004280020DA290020651B000025680000684E002044290020914E00006E4F00205C
:2039D000F04E002002000080EC4E002091530100424F00204C290020714F00202DE9F04F3D
:2039F00009AFADF13C0D08900A92388809911E46ADF81800101C08BF002000F075810178F7
:203A100000274FF0010B401C4FF0FF39B846DA460A9061E1252940F056810178401C0A9093
:203A30002D2918BFADF8068004D10178ADF806B0401C0A9030291CBF4246434604D10178EC
:203A5000401C5A465B460A902A29CDF800804D4617D1049330680A9BCDF80890C01C20F0EF
:203A70000300001D306050F8044C1978002C009403F101000A9018D5ADF806A0644200949C
:203A900013E044460AE0600000EBC4004018A0F130040A9801780094401C0A90302901DBA9
:203AB0003A29F0DBCDF8089004932E2929D10178401C2A290A9011D13168CDF80880C91C14
:203AD00021F00301091D316051F8045C002D48BF454601782B46401C0A9011E045464346BD
:203AF0000AE0680000EBC5004018A0F130050A9801782B46401C0A90302901DB3A29F0DBB1
:203B100002930AB1224604926C2904D04C2918BFADF8048004D10178ADF804A0401C0A90DC
:203B30000BA8CDF80C800FAB07906429059300F0828069297FD0BDF818C075296DD078291F
:203B500069D06F2965D070294ED063293ED0732922D00A98401E0A90099801281AD966496A
:203B70000C68B5F1FF3F03D0A84288BF6D1C05D86FF00041814294BF0D1C099D029508A8A7
:203B90000AA932466B46A04709993F18091A0398099165E0454617E03068C01C20F00300B3
:203BB000001D306050F8040CBCF1010F014608B94FA00146079117F08FF80390B5F1FF3F58
:203BD0004FD0A8424DD9039528464AE03068C01C20F00300001D306010F8040C8DF82C0079
:203BF0005D46039558463CE0082035680490E81C20F00300001D306050F8041C08221023DE
:203C10000FA80FF023FC401E079040210170079823E0082302E0102300E00A233068C01C95
:203C300020F00300001D306050F8041CAA42BCBF2A1C04920DE03068C01C20F00300001D78
:203C5000306050F8041CAA42BCBF2A1C04926FF009030FA80FF0FAFB07900599081A039019
:203C7000009C241ABDF8065000945DB906E008A8202109AA15F0A9FC7F1C009C641E009424
:203C9000F5D50398401EB0F1FF3F03900FD1BDF8060001281CD10098401E009018D408A80C
:203CB000202109AA15F091FC00987F1CF4E70798017809AA08A815F088FC0798401C0790CA
:203CD00003987F1CDEE708A809AA15F07EFC7F1C0A980178401C0A9000297FF49BAE0898C6
:203CF00008B14146017038460FB0BDE8F08FC046286E756C6C2900C024CC0100BB482DE9C6
:203D1000F84F0025BA4CB849056094F8E200002800F06581012800F02F81B64E02283CD04C
:203D3000032840F05C8151F8250CD4F8B8100029A0F5C060C4F8D400B8BF49420028B8BF1E
:203D50004042814226DA4FF08057D7F8A4014568B4F8BC0030214FF47F42082300903046E9
:203D7000A847D7F8A4014568B4F8C00004214FF4F802122300903046A847D7F8A401B4F80B
:203D9000D070456820214FF440620A2330460097A847012584F8D8501CE151F8258C17F00F
:203DB00085F92F4600B901273946934F38680028FCD0B146012609F10409D9F82CA03E60CA
:203DD00009B117F079F9CAF30720C4F8BC0017F06DF9AA4600B9B2463B68002BFCD0D9F8CB
:203DF00000B0BAF1000F3E6001D017F065F9CBF38440C4F8C00017F059F9AA4600B9B2467D
:203E10003B68002BFCD0D9F81C90BAF1000F3E6001D017F051F9C9F38120C4F8D000B8F56B
:203E3000C061C4F8B81000F09C8094F8D80068B9C4F8D410D4F8C000C4F8C800D4F8BC7094
:203E5000C4F8C470D4F8D030C4F8CC30D4F8D400D4F8BC30002854BF02226FF0010204F1D0
:203E7000C8010F6800EB40008018421000EB927207EBA2000860D4F8C810C4F8C430002975
:203E90001CDD1E293CDDD4F8CC0030B93429B4BF15391E21C4F8C81025E02A29BABFD4F8AA
:203EB000C8000B381E20C4F8C800D4F8C4003F28B4BF401C3F20C4F8C4001FE0D4F8CC00E9
:203ED000032812D011F10B0FC6BFD4F8C8000B30301CC4F8C800D4F8C4000028C4BF401EEC
:203EF000051CC4F8C450032508E011F1150FC6BFD4F8C8001530301CC4F8C800C4F8CC5085
:203F10004FF08057D7F8A401B4F8C43030214FF47F424568374800930823A847D7F8A401C5
:203F300004214FF400321123456832480096A847B4F8C860D7F8A40104214FF4F802122318
:203F500045682C480096A847D7F8A40120214FF440620A23B4F8CC60456826480096A8476C
:203F700001E084F8D85040F2FF50404502D8801C40452FD2082030E051F8251C1F4F4BF23D
:203F9000F5204843060A3868C0F3814001280CD11B4800680068804713F066FD17F092F856
:203FB0003111C010484306EBE03694F8E50030B91448006820F07F403618760801E084F837
:203FD000E5501148310C0660012741600F4D8760287808B90B2000E0052084F8E40005F0AE
:203FF000DBFBBDE8F88FC0462D400C402C500C404C04002000A00C4000800C40B43F0050BD
:20401000EC010010102009403C600C4041C90100C2480278112A00D070472DE9F047C04A8A
:20403000107800210AF030F804000AD1002016F04BF8002016F048F8BDE8F047FF2017F0F5
:20405000F5BC04F14C0898F8000008B90121E172451C88F80050E9B2E07DD8F80490814240
:2040700009F1400A24D299F80E00401C89F80E00D8F808104A7AD9F80810520802F0010288
:2040900082F00102101889F80E00A08B01EB8001C9F80810627DD30609D5628B98F8003030
:2040B00000FB1320C03001EB8001CAF8201032E104F1280609F174074ED1A07F3875E17F7D
:2040D0007975D8F808205278930710D5E27FD30604D5C01E387501F0EF017975002038607C
:2040F00089F873000022797D01F0FE010EE1910607D4F08B00B1F07EF875F08B00B1306A86
:20411000F861D8F808004178C8070BD5F18B00291CBF306A002805D0F861B07E884238BF97
:204130000146F975E07FC1060CD5D9F83800317800EB8100C9F83800A18CC03100EB810012
:20415000022101E000200021386089F873100022E17F01F0FC01D9E0D8F808104978CA07CB
:2041700016D5787D397D00F0F700891E01F03F0182075CBF891D40F00200420644BF491EAC
:2041900000F0BF00787539750020F861F875C2E0A28C2D1AD9F838008907EDB200EB820023
:2041B00075D5012D41D1C9F83800A07F00F03F00A0773875801EE17F7975387501F0F701D8
:2041D0007975D8F8082053785A0704D5801F387501F0FD01797500233A7DF17E9AF80000E0
:2041F00002F03F028A18521CC0F3800192B200F0030013F0BFFD00F5FA70A0841E21A08C54
:2042100090FBF1F18AB2797D01F0FE0120460AF0D7F8002189F87310F08B00B1F07EF875A4
:20423000F08B00B1306AF86175E0022DC9F8380026D1E07FC10706D5387D811F3975787DE1
:2042500000F0FE00787500233A7DF17E9AF8000002F03F028A18521CC0F3800192B200F0ED
:20427000030013F087FD00F5FA70A0840022797D01F0FE0120460AF0A3F8707FAAF81A0073
:20429000707F401C451BE8B2012812DD07E0C9F83800E17F707F451BCA06E8B209D5A28CAC
:2042B000D9F83810C03201EB82013960022189F8731080B3F969F27EE37FA57F0A4459087A
:2042D000FA614FEA410AD8F8081049784A0748BF2AF0020A890748BF2AF0080A012807D104
:2042F000307FF875002139602AF0100A89F87310504614F0EBFB05F0C00500F03F000543EF
:204310003D7587F815A000220AF0FC012046BDE8F0470AF055B8BDE8F08700BF6F4F00208C
:20433000DA2900202DE9F84306460D46707801071DD4D6F80310B44821F07F4120398142AF
:204350003FBFD6F8061021F07F412039814228BF112033D2B01DF11C88425CD3B07A00283C
:2043700018BF012803D0022818BF032853D1B07C002818BF012803D0022818BF03284AD19C
:20439000307D012818BF022803D0832818BF032841D1707A10F0070070723CD030780121FB
:2043B00009F072FE04000AD1002012F05DFE044617F022F8844214BF07200D2021E104F1D9
:2043D000540100200E606072227A012A08BF0C20F4D0E075727A012383401A4208D0E27DDF
:2043F000521CE275D2B2012A04BF00F125022276401C0328EEDB7078C20619D5317D012900
:2044100009D1102811D012280CD0132804D0152804D01D2804D09FE0002007E0042102E0BD
:20443000012003E00221A17360E00320A0735DE0FF22A273307D02281EBF727802F00300B5
:204450000328E8D01307E6D408B19006E3D4520707D516F10C00DED0F07A002818BF012807
:204470007AD100206075E077707810F0030F26D1207D00F03F0020757078820605D448684A
:20449000002804BF8868002801D018216175707881060DD4307D832818BF032804D1182072
:2044B00001216075E17703E0607D40F0010060757078410716D5E07F40F0020011E0217D9C
:2044D000C0074CBF0120022001F03F0141EA80112175182060750921E1777078410701D59F
:2044F0000B20E077207D00F0C000A07796F913007F2806BF4548007811F04CF804F1290749
:20451000387045B14248416B48693978026801EB4101505C2870B07ADFF8F880DFF8F890A1
:204530003E4D002818BF012809D17875B07AC10758BFC8460622414604F130002FE005F101
:204550000D0017F043FAB8B1B07AC10754BF4946414616F0E7FA08B9122052E0B07AC10778
:2045700054BF49464146062204F1300016F01EFAB07A00F0010006E00622E91D04F1300043
:2045900016F014FA03207875B07A00F001002870B17AC80758BFC84606224146681C16F0DC
:2045B00005FA7078410729D5B07A022818BF03281BD1F17A06F10C0201F0010128460FF0AC
:2045D00081FEFF2811D01E214843054405F10D0017F0FCF948B9E91D05F10D0017F0EEF93A
:2045F0000120B8750622E91D04E0F07AB875062206F10C0104F1380016F0D8F90120607291
:204610000020BDE8F28300BFE0FFFF00714F002060CC0100344E00202C4E0020C82300205F
:2046300010B54FF4DF62234923480CF09DF8234800210170012202230272437603222049B9
:2046500004230A70CB700521417707231D491E480B7008240C72062209210270017210BD71
:204670002DE9F041194A1A493820136854689568D6681769D2F814C0D2F818E0D2F81C800D
:204690000B604C608D60CE600F61C1F814C0C1F818E0C1F81C8020322031401EE5D11068A6
:2046B00053689468D26808604B608C60CA60BDE8F081000010E701004804002151030021E0
:2046D000C1030021980300217403002100E0010000C000212DE9F047DFF8AC916B496C4E00
:2046F00089F800000922002008600D2369484FF48E7102704380818067480660B77E674824
:204710000770FF2FF17E417008BFFF29327F8270737FC370B57F0571F67F467114D1FF2A29
:2047300008BFFF2B10D1FF2D08BFFF2E0CD15C490A7802704B7843708A788270CB78C37021
:204750000A7902714979417156490278564D574EDFF85C810A7043784B7082788A70C378AB
:20477000CB700279534B0A7140794871FF2028706870A870E8702871687100204E49088038
:20479000776B4E49787808703A784D491A70B87808707A6910794B4A411E1170F8784A49CA
:2047B00088F80000B869086008B915F08DFCF869464C206008B915F087FC2068DFF810A1C5
:2047D00001688847226852F8041F5046884741484149CAF82000CAF82410386A3F490860B8
:2047F00008B915F071FC786A3D4C206008B915F06BFCB86A3B49086008B915F065FC05F034
:2048100013FC07280CD109F009FF99F800004FF4804109F077F8BDE8F047002015F054BC5E
:204830003148016888472268074610688047216851F8042F00209047F16898F800000A882A
:204850002A4B2B4902431A8038460A6890470C21284817F0ABF8284800680E2116F052FB18
:20487000284617F09FF817F099F84FF6FF7223488280002101604FF4005199F80000BDE815
:20489000F04709F03FB800BF6E4F0020044F0020B63F0050604E0020084F00202C4E0020AE
:2048B000E81200503C4E0020344E002060CC01006C4F00207B4F00200C4F00206D4F002009
:2048D0006B4F0020724F0020F04E0020F44E00207C4B002065AF010085AF0100F84E0020B6
:2048F000FC4E002054290020500C0020544F0020540C0020F84D0020642900200C2900207B
:20491000F0B5994EAC493046ADF5AE7D11F0BAFB964C0021204617F03DF8A8489549046036
:20493000934800221523009010200DF0B7FC92491020002202230DF0B1FC012500248DF8F7
:20495000585156A88DF859518C4F8DF85A414FF480628DF85B512B460090394610200DF073
:204970009DFC0DF2591040F202422B463946009010200DF093FC0DF5AD700090394640F214
:2049900003422B4610200DF089FC0DF25B10394640F206422B46009010200DF07FFC02A8E9
:2049B00021462422082316F0F1FF7548754F00684FF47A71224602ABB1FBF0F081B24FF4EB
:2049D000FA70484370490790384616F0DBFF6F4910204FF0FF320DF061FC6D4910204FF04D
:2049F000FF320DF05BFC15F031F8307815F040F8684927A818220BF0B7FE0720182127AA74
:204A10000DF0FEF939A8214611220DF03DFF0820112139AA0DF0F4F952A8214610220DF027
:204A300033FF0920102152AA0DF0EAF92DA8214617220DF029FF0A2017212DAA0DF0E0F955
:204A500033A8214617220DF01FFF0B20172133AA0DF0D6F90BA821461A220DF015FF0C2011
:204A70001A210BAA0DF0CCF9307815F013F83EA8494912220BF078FE204612213EAA0CF022
:204A900011FF12A821461A220DF0FEFE28461A2112AA0CF007FF19A821461A220DF0F4FEE6
:204AB00002201A2119AA0CF0FDFE20A821461A220DF0EAFE03201A2120AA0CF0F3FE43A87F
:204AD000214612220DF0E0FE0420122143AA0CF0E9FE48A8214612220DF0D6FE0520122175
:204AF00048AA0CF0DFFE4DA8214612220DF0CCFE062012214DAA0CF0D5FE2849284A102052
:204B10000DF0CCFB3178502014F0B0FD2549024610200DF0C3FB3178502014F0A7FD22492A
:204B3000024610200DF0BAFB20491020FB2240F648030DF0B3FB1E4910200DF0AFFB4FF6D6
:204B5000FD7014F01FFE3178502014F08FFD0094034604221749019410200DF09FFB3846D1
:204B700016F00CFF57B0F0BDB8280020D4280020620D00206D51010001880100356A0000CD
:204B900018CC0100C0270020EDB201007D9D0100F9A10100FCC80100C8C90100EDA30100DB
:204BB000740F0020518801103181011021B100103D14010019850000BC280020C0280020B7
:204BD0002DE9F84FDFF8B4920F460446F80B80F00981A54EDFF88482B80F80F0BA80B808AE
:204BF00080F0AE803809C0F02F81082016F082FA002840F0A080802016F07CFA002840F0D0
:204C10009A8068460BF0C6FC012803D10098002800F0918090480078002840F08C80002568
:204C30000124E8B216F012F848B1837A3BB1847290F9090004FA00F0C0B213F071FD6D1CD1
:204C5000032DEED345460320287405F1AC0016F08FFB83480168002398461A46036050F897
:204C7000081C804940F8088C05F1340016F09AFB404603F0CCFF3068006B8047A968401A2D
:204C9000010BA869C1F1FF3282422CBF08444FF0FF30A861287F20B1E868A969B1EBC02F2D
:204CB00025D915F0C1F9414600B12146081C1BD06E4840F60901018043464380417B04F006
:204CD0000F0221F00F010A434273017B03F00F0621F00F0146EA01020273436016F0AEF8F4
:204CF000418811F4406FFBD02C774346AB6112F0D9FE5F48444641460460022014F012FFF8
:204D1000022013F0D9FC112009F092FF287818B96868383016F05AFB5648007810B90E20BD
:204D300009F086FF687F18B16C77052013F0C4FC514868612C740FF04FFD27F0080783E094
:204D500007F022FF45467435286808B927F002077AE016F017FBB3468246DBF854000168C3
:204D700004208847D8B1207CC8B1454608352868A8B10646DBF80000E568006B8047801BA8
:204D9000E060000BE060A84202D240194008E06040F6C41181422CBFB0F5FA7FE16050462B
:204DB00016F0E8FD13F0B6F990B1A56920466FF4807100224FF00073A847464606F16C0586
:204DD0002868002808BF47F0020701D00FF004FD2046646900214FF080630A46A04727F06F
:204DF000005731E016F0CEFA49460E6846B306F1280106C90A234FF0E0450B40154008BF88
:204E1000002B1DD106F1280191E8300006F1280393E8060006F12803AA43A14383E8060099
:204E300016F0A8FDB16869B1002D08BF002C09D030692246B6F93C10B4682B46A04701E03A
:204E500016F098FD27F4804727B148463946503016F0C8FABDE8F88FE11E0020481D0020C8
:204E700014100440314E01008C01001020280020000004605ECB0100F9DE0000C81D0020CB
:204E9000A2488078FF2800D170472DE9F84F15F0FBFE054605F217100178012908BF41788A
:204EB00000F0A78005F17400817B022903D105F174010020887305F59274E18911B1207B19
:204ED00008F020FD6889DFF848C2DFF8489228819CF807209CF80A009CF80C109CF80B7069
:204EF0009CF80D3000EB02088844B84405F58D779844BB885B1CBB803E8846443E80B7F888
:204F100002E08644A7F802E04FF01C0E2368E3B1D9F8006095F806B006F10E0A0EFB0BFB3A
:204F30000E361AF80BA033F81AB0C34423F81AB095F806A00EFB0AFA16F80AB003EB4B0638
:204F5000B6F84AA08244A6F84AA0002A04BF9CF80B20002A05D1002904BF9CF80D100029E9
:204F700026D02989E88941180026A9812E74287F012804BF688CE8839CF8010068B10121FB
:204F9000297705F174018878002804BF887B002803D1087F08B9688CE883207D002832D09E
:204FB000022804BF9CF80B00002827D1002129E0EA8340B1297F012600200129287406D121
:204FD000688CE88303E0F888401C0226F880A8892989814206D08842CED2081A41F2AB021B
:204FF0009042C9DA287C08B1052901D0082100E03E212846BDE8F44F14F07CBF9CF8090036
:2050100008B10221217544489CF80F2001682868D30709D5DCF81020C26001F11400A979C0
:2050300049010022425010E0AA791431520189582161D9F80020A97902F108030EFB01F148
:205050005A58C2600020E8832877344841690A78900703D59CF80E00802800D1812005F179
:20507000740A8AF800002846FBF708FD01284AD0012128460DF0BAFC284614F0D4FCFDF7FF
:20509000E9F801283FD000F071FFDFF89490D9F80000C0B3B9F80400AA7990421CBF4FF67E
:2050B000FD7188422FD11F48007A15F05BFF040029D02670A879608095F83910217195F8DF
:2050D000960160719AF90010A171A4F808807888608115F037FF050005D1FF204FF0FF31FA
:2050F0002073216109E02878207316F07BFC0146A86816F03BFC800820612046D9F800100E
:20511000BDE8F44F0847BDE8F18F00BF684E00205C4D0020442900204829002060CC01007A
:205130000C290020080F00202DE9F84F050046D0DFF8509299F80000092818BF0A2804D003
:205150000B281CBF0C280D2801D1212018E1A878002108F099FF040008BF4220F6D0A878D8
:205170008949087004F14807F868417801F01201022902BF786900280C2012D0607AF0B1F6
:20519000A07B012804D1B5F8030008B1812816DA6878402813DA20460BF034FBB86808B93E
:2051B0000720EDE0BD61287801281BD1A07B00281CBF0128042815D17448007808B9122098
:2051D000DEE073494A78824208BF0920F8D004F1220004F13801427F802007F077F808B142
:2051F0000B20CDE0687808B91120C9E02878694EDFF8A4A1DFF8A4B1012840F08980207AB1
:205210000021012821734FF00A0811D19BF80000402113F05BF9B5F8030008FB00F140201E
:2052300014F014FD0100E0D1B96968794871A6E001202072E17261730AF02AFF6060DAF8C6
:2052500000008047564A0146106802E06268426000680028FAD10846316888476168514857
:205270004861F8684178C80605D5204601F0E2FD01000BD084E00020608415F03BFE84F880
:2052900021002046FDF744FE010079D1F8684178C8071CD504F14206B18800291CBF386803
:2052B000002814D032788A4211D20F2015F03EF968B1F86801788DF80010B088ADF80100A9
:2052D0000F2031788DF80310694614F01DFF99F80000002853D13449087800281EBFF86840
:2052F000417811F0030F1CBF304814F027FB112089F8000001212172B5F8030008FB00F14E
:20531000402014F0A3FC01003AD100F02FFE36E0207AA8B3DAF80000804705469BF80000CF
:20533000402113F0D3F80020207215F047FF012804D015F007FE6168884217D11C4A1D48E4
:205350001368006853F8384F0021A04740F2014016F044FB18491948086001219BF80000E9
:2053700008F0D0FA31682846884708E0204613F0EDFF316828468847204615F0B9FB002033
:20539000BDE8F28F6F4F0020D92900207B4F0020684E0020540C0020500C00206E4F00203E
:2053B0006029002009660000784E0020CC470020F04E0020EC4E0020204F002025680000D8
:2053D0002DE9F04F8246DAF80070DAF804600C465FEA0208ADF11C0D14BF00214FF0FF3159
:2053F000DFF84092484615F0ACFC002818BF0B2040F0158100258F488C4905708A48FC6055
:20541000524615F0CFFF317B272015F0CDFFB8F1010F07D06570022013F00AFC062013F094
:2054300007FC01E0012060702078012840F2AA80801E012868D9801E012833D9801E0128C8
:2054500000F2DE8015F09EFF83464FF0805000F5EE77D0F8DC01A378466A0093217828460E
:20547000062908BF0120019001200290A068228AE1686368B0478146584616F07BFAB9F178
:20549000000F40F0BF80B8F1000F02D015F02EFA02E0504613F092F9002800F0A3803868E6
:2054B000806A2AE015F06EFF83464FF0805000F5EE77D0F8DC01012306680093A168A27857
:2054D00060682478AC46042C08BF9C466346B0478146584616F04EFAB9F1000F40F092803F
:2054F000B8F1000F02D015F001FA02E0504613F065F9002876D03868406880474C49C1F86E
:20551000B0510D6081467DE015F03CFF83464FF0805000F5EE77D0F8DC01E38A86690093E3
:20553000E0680190208B0290A0780390207D04900121059122782846022A08BF081CE17839
:205550006268A368B0478146584616F013FAB9F1000F57D1B8F1000F02D015F0C7F902E0E5
:20557000504613F02BF900283CD03868006A80475FEA000946D1E078A168E28A23690CF09B
:2055900081FCBFE715F0FEFE83464FF0805000F5EE76D0F8DC01E38AC7680093E0680190F9
:2055B000208B0290A0780390207D2946049001200590257805B9014608466268A368E1787F
:2055D000B8478146584616F0D5F9B9F1000F19D1B8F1000F02D015F089F902E0504613F054
:2055F000EDF808B914201AE03068406980475FEA000907D1306802692169E078904781E771
:205610004FF0FF39B8F1010F05D0022013F054F8062013F051F8034815F0D8FE484607B027
:20563000BDE8F08F08090020400900200596010050450240D02900202DE9F04F0746164612
:205650000020ADF17C0D1B938BA4009094E80C0038460CF04EFB88460FF22C290CD988A406
:2056700094E80C0038460CF001FB05D999E80C000CF0FCFA02D109E094E880014146384601
:205690006A460FF0FBFB0098401E0090307BB5680024A0F14101B5F1FF3F1D9108BF012492
:2056B000A24641280CBF6AA06EA01E9030208DF8080099E80C00414638460CF0D7FA38BFC5
:2056D00088F0004899E80C0041460CF0CFFA0CD0384601AA0FF0D2FB019A41463846C2F1FD
:2056F000010208F039FD88460746384611F01EFB83460DF1090110F031FA0446584613F0CF
:20571000C9FC0B4602464146384603F0A5F90FF2801B0DEB04021C940746BAF1000F02F141
:20573000090453D16D1C15D09BE80C0006F0CEFE8846814611F0FAFA1E99095C04F8011BAB
:2057500013F0A8FC0B4602464146484603F084F96D1EE9D11D9F641E002F14BF41A53CA528
:205770002178284615F0FFF9401B082833DB27464FF000081D987F1E002814BF39A534A5C4
:205790003978284615F0EFF9401B401C1028B4BF295C3021102839701DDB87F80080E9E70D
:2057B0009BE80C00384606F091FE0D46074611F0BDFA1E99095C04F8011B13F06BFC0B4600
:2057D00002462946384603F047F9074699E80C000CF04CFAE4D10025307B2570412814BFDF
:2057F000702150211B9A009810F008FBB068B0F1FF3F05D10DF1090015F06EFA401EB06098
:205810001C991B9B0DF109040246204612F057F83168B0682A4601F00801084318BF0122A3
:205830001C991B9B20460DF06BFD307B412814BF782158211B980268531E0360117001684E
:2058500030274A1E02601FB00F70BDE8F08FC04630313233343536373839414243444546FD
:2058700000C046C03031323334353637383961626364656600C046C0000000000000F07FBB
:20589000000000000000F0FF000000000000000000000000000030402DE9F24F054684B0C3
:2058B0002868D0F80490D9F8080016F05BF8002805F59A7B40F0058128680169049816F031
:2058D00055F805F1820680463078002805F12E0440F6C41A00F0878070882989401E80B2EA
:2058F00016F098F80746307802280CBFBBF83000A088784300902868016900980AFB00111A
:20591000049816F02FF8002868D07F1C03973078009F039A02280CBFBBF83000A088C71955
:2059300000230AFB07F0029201930090296809694118049816F016F890B100983189A8EB4E
:2059500000080AFB01F0B8FBF0F200FB1288B8F1000F18BF521C5143019103995218029252
:205970002989029841186981F18801983278CF19C719012A48D105F18601284614F0D4FB02
:205990007089688400212977E983E88969894118A9813289A188B0898A4204BF23899842CD
:2059B00002BF7189E388994207D0000900907389A97952080020FBF701FBA088ABF83000E5
:2059D000317921703089A0807189E180B0892081284614F0B9FD0220307015E031780129BC
:2059F00018BF14F071FBA08829890AFB00F0B8FBF0F700FB1788B8F1000F18BF7F1C791892
:205A10006981BFB2A08847432968344A08690AFB0700C9F808000B78802B10D1C860D2F813
:205A30003080A388D8F8000043436420B3FBF0F3D9F814000AFB03F3A3F5966343610B7878
:205A5000402B36D1AF614FF4C873688A4743B7FBF3F0401C6861D9F80830181AC9F80800FC
:205A70006B69DBF8000000EB4300D9F8143058611B4833780068022B0CD1AB795B0100F182
:205A9000140656F803C026780AFB06CC00F1140646F803C0AB79126B00EB4316A3881068C2
:205AB00043436420B3FBF0F30AFB03F0A0F59660F061D9F8080088602846E17AA17211F0C9
:205AD0001DFF6989A88915F0A5FFE989814238BF0120ABF82E0005B0BDE8F08F60CC0100AA
:205AF000482900202DE9FE4F8A4C617811B9002014F0EAFA15F076FF06464FF0000806F618
:205B1000C4160027844DDFF8149211E0384615F0BBF8417951B12A68817902F8081008F1AC
:205B300001015FFA81F83146FFF7B6FE7F1CFFB299F800008742E9DB6178884505D000205B
:205B500014F0C2FA822015F071FF6078012840F0C380002701E07F1CFFB299F8000087423C
:205B700080F2B480384615F08FF8064670790028F1D02968B0790A7890421CBF002014F03A
:205B9000A3FAB079A0E0286810F8090015F07CF800684268DAF808109068814204BF3E4697
:205BB00009F1010900F0A680A8E0286890F800B001224FF4D0710FE0636803F5B176835C0C
:205BD00001FB03F901FB0BFE36F809C036F80E60B44538BF9B46521CFBB29A42ECDB4FF651
:205BF000FF700CF07BFF0646584615F04DF84C490068D0F804A00868D94630F8192060685B
:205C10004FF4D07300F10E0103FB09F3C85AB2EBD00F52D2720840F6C41042430092002770
:205C3000404A0190029217E0584615F02DF801680A78802A03D1DAF81430009A5A61097891
:205C5000402908D1029980790A6802EB4011009800F5A060C8617F1C47452EDA2868C05D1C
:205C70008345F8D001464FF4D073594363685A1803F5B173D289595A53088B4202D2521A4C
:205C90009045E8DA15F000F801684A68019B9168DAF808207008A1F6C41103FB002015F0AF
:205CB00061FE0028C0D01E48006830F81910491C20F81910286810F807B0194802680021BD
:205CD0005B4622F813105846BDE8FE8F002014F0FBF9822015F0AAFE617828680EF0BFFA7F
:205CF0002868007814F0D0FF00260068D0F804A04FF00109771CC145FFF645AFF6B2002E1E
:205D10001CBFF8B200287FF450AF286890F800B065E700BF684E0020004F00207B4F002052
:205D300058290020482900202DE9FE4F8648DFF81C920278002A41D0D21F012A4ED90A3A2F
:205D500040F0FA80824C2078002108F09DF904001EBF606D407810F00C0F2FD0C00603D556
:205D7000216D886D026802E0206DC16E0A6802F108050622A91C684614F018FE287800F0D1
:205D90000F0105291AD16946C0F3801015F01AFE002813D04946684613F020F9054649467D
:205DB00004F1380013F01AF985420DD0606D4178C80604D440F2014015F010FEC2E0607BBD
:205DD00040F002006073BDE01E20454309EB050006226946C01D14F0E9FDB3E0DFF874B125
:205DF0009BF80200FF28F8D014F04EFF804608F16C06706815F0B2FD00900179032907D1F3
:205E10008068047814F0030403D1706815F0A2FD98E04578032C00F1020A08F2171706D153
:205E300098F8940000284AD0042D11DD1CE0A5B1307868B108F1F400017801290DD1424AC0
:205E50001178072904D0082904BFC078012804D13D2179700120387074E03F490A78012AE2
:205E700070D098F8940050B32D1FEDB253462A46214640460BF028F938B93D207870012156
:205E90003970484613F0C1F85CE0344801688847814698F80610DBF804204FF4D0704143A4
:205EB0005018002280F8412108F59E700168807949080DF0C1FD2A490A6848469047009912
:205ED0000020032C886016D0264841690878820707D5C0074CBF0320002040191AF8000018
:205EF00000E08120307223469BF802002A46514604F044F918E09AF800001A2803D21A4A34
:205F1000115C8D4205D0B870072140460DF086FC07E00D480178082903D051464046FBF743
:205F3000FFF950460FF016FF706815F013FD0099404612F07BF905E0002014F0C5F88620C1
:205F500015F074FDBDE8F78F6F4F0020C8230020DA290020684E0020794F0020500C00204A
:205F7000540C002060CC010098CC01002DE9F84F894E716884B0009121B905B0BDE8F04FBA
:205F900015F0E4BC0978DFF81492DFF81482854FDFF814B201291CBF0229042941F64C5A36
:205FB00004D0402918BF802970D0EBE015F006F90028FAD00098007805F0F2F8054615F0D4
:205FD00055F804469BF80100002841D0FFF78AFD14F05AFE0290016800914968019194B160
:205FF000009928460DF0F2FC02280CD029780129DBD118B915F0F6FC5044A0600120B07085
:2060100011213970B8E00098017880290BD108203870019998F800204869012A0BD0D9F8C5
:2060300028100A780DE007203870019998F800204869012A02D10121C17203E0D9F82810A0
:206050004A78C2720298817900988BF8021094E0002DAAD000992878A94208D1012802D165
:20607000002C03D194E0002014F02EF884E001289BD1002CF6D015F0B5FC00F5C241A068B1
:20609000A83115F06FFC002872D16DE09BF80100002859D0FFF726FD14F0F6FD0446206828
:2060B000019045689BF8020014F0EEFD039015F08BF810F0070F21D0B07805F071F80090D6
:2060D00014F0D4FF0290C8B1019900980DF07EFC022813D000990A78012A0CD128B915F00F
:2060F00081FC82440298C0F808A0112139700120B070009841E0002013F0E6FF0398A042F9
:2061100020D00199087880280DD10821397098F800206869012A02D10121C1720FE0D9F879
:2061300028100A780AE00720387098F80010686901290EBF0122D9F828104A78C272A07939
:206150008BF80200019818E015F03EF810F0070F1ED0B07805F024F8054614F087FF044682
:206170002878012814D19CB115F03CFC5044A060112038700121B170284605B0BDE8F04F20
:206190000BF09CB905B0BDE8F04F002013F09CBF05B0BDE8F08F00BFF828002060CC010083
:2061B000734F00206F4F0020684E00202DE9FE4F05467B48002400680094C00905D3794846
:2061D000007810B9202012F0C9FB012D40F0E280DFF80092D9F8DC00012840F0D8800220BF
:2061F000C9F8DC0014F00AFB012012F0B7FB5FEA000805D00120C9F8DC0014F00BFBCBE07B
:2062100015F0ECF8A34602906748684DC0F800B0A86A016801208847012804D158460DF03A
:20623000EFF9012000906248624FC0F800B03868112014F059FF00B10124102014F054FF68
:2062500008B144F002040F2014F04EFF08B144F004040B2014F048FF20B12868564E016BDF
:20627000308888470A2014F03FFF20B12868534E016B308888475248012606602868816985
:2062900044F0200088474F48066014F027FF00F001010191400814D2286A81684A48884716
:2062B0008246BAF1040FF7D0BAF1010F04D1286A42684548032190474449086820F003001D
:2062D0000860584600F088F82B683868986B8047019801280CD0BAF1010F04D1286A4268D1
:2062F0003948314690473949086840F0030008602F48066028684169204688470B2014F0B7
:20631000F3FE20B128682C4BC16A188888470A2014F0EAFE20B12868284BC16A1888884786
:20633000274806600322C9F8DC20264BC3F800B02868416B204688470128F9D13868042092
:2063500012F00CFB0446184806603868144800688009FBD30098012802D130460DF050F909
:2063700014F0AAFE082012F0F9FA07460298C9F8DC6015F0E7FA164800880CF0E1FE14F0B5
:2063900049FA57EA040018BF4FF0FF3804E06FF0040801E06FF001084046BDE8FE8FC046C2
:2063B00014100940340500200C400940B8010010000222432C20094036C6010032C60100B7
:2063D000282008608001044300400340242208403CC901004C0400202DE9F84FDFF804B2C4
:2063F0000746ABF13500DFF8F0810068800880F0E28075480068006880477E490831D1F848
:20641000009000254FEA29715FEA995201F101010AD2C0F13E0210F10A0F4FEAE202D8BF21
:2064300008229142B8BF111C684BD3F87C21C2F30462162AA8BF203A1B68C3F30443162BB3
:20645000A8BF203B9A465218162A05DA12F10A0FB8BF6FF0090200E015225D4B5D4E02F0A8
:206470001F0141F4F8511980316811F0030F18BF0125C90828BF45F002050FB145F004053A
:20649000434693F90710411A052904DA9979A94208BF99886FD0DFF844E10F28A0F10F085A
:2064B00029DB08EB0011A1F1F0084FEA28210091072984BF07210091062988BF06215EF808
:2064D00021600424774604EB81043C594FEA950CA41BEE0804F0FF0124BFC4F3072631447E
:2064F0006F08AE0824BFC4F3074631446E0828BF01EB146104E000214FEA950C6F0800915E
:20651000009C5EF824E05FEA5C060EF0FF0424BFCEF3072634447E0824BFCEF30746344491
:206530006E0828BF04EB1E64009E89B2A8EB06267143803104EB1124AAEB02010029D8BF04
:206550000121342209F0FF074A4391B24FF6FF727943B1FBF4F18A4238BF111C802889B20E
:20657000998005DA10F1800FB8BF6FF07F0000E07F20D8719D711A4800681F2918604FF08F
:20659000000008D340F2FF128A4206D24908401C8A42FBD301E01F219980134F0F390909EC
:2065B00040EAC10047EA0001CBF8FB1F0026CBF8FF6FBDE8F88F0D490D4F434608200F607C
:2065D0009B1D1870BDE8F88FEC0100103C1100506E620840242208401C2900209C1300509B
:2065F000082009403500094000E7A48030100940FDFDA400AC3F00502DE9F84F824A83463D
:206610001078002107F040FD9BF80010044601291CBF002013F058FD14B9002013F054FDE2
:2066300004F14C064FF47A67B0684178D6F804A0C8064FF00B0841F64C592CD50AF178002C
:20665000002101808170C17001714171C18001818172C172C160A07B01281BD015F0C2F949
:206670000AF108054844296815F07CF9002811D015F0B8F94844286015F060F90B2290FB82
:20669000F2F2296808FB12081FFA88F007FB00172F60276183E00AF17401002008840022F6
:2066B0000AF19600027042708270C2708280C28002724272CAF8A0200AF1080515F092F96B
:2066D0002968484415F04EF988B115F08BF94844286015F033F90B2290FBF2F2296808FB0A
:2066F00012081FFA88F007FB00172F6027610AF14007607DC1064FD5287AA27D521CC0F3C3
:206710008001002392B200F0030011F033FBA0831E20A28B02F5FA731E2193FBF0F001FBC4
:206730001030C0B208B1C0F11E009BB28C46801893FBFCFC00F5FA7002F5FA7201FB1C31C7
:206750006083A283C9B209B1C1F11E018A18A28380B2E17D491E92B202FB01026283608B49
:206770002A68C03002EB800139620220F877618B02EB81022A63287A18B9397809B12032D4
:206790002A63A18C286BC03100EB8100CAF8740002208AF8730002E000213962F97761681B
